:020000040800F2
:10000000D0980420DD01000873150008FD130008D6
:1000100071150008E9020008591B000800000000E3
:10002000000000000000000000000000771500083C
:10003000EB020008000000007515000879150008A3
:10004000F7010008F7010008F7010008F7010008B0
:10005000F7010008F7010008F7010008F7010008A0
:10006000F7010008F7010008F7010008F701000890
:10007000F7010008F7010008F7010008F701000880
:10008000F7010008F7010008F7010008F701000870
:10009000F7010008F7010008F7010008F701000860
:1000A000F7010008F7010008F7010008F701000850
:1000B000F7010008F7010008F7010008F701000840
:1000C000F7010008F7010008F7010008F701000830
:1000D000F7010008F7010008F7010008F701000820
:1000E000F7010008F7010008F7010008F701000810
:1000F000F7010008F7010008F7010008F701000800
:10010000F7010008F7010008F7010008F7010008EF
:10011000F7010008F7010008F7010008F7010008DF
:10012000F7010008F7010008F7010008F7010008CF
:10013000F7010008F7010008F7010008F7010008BF
:10014000F7010008F7010008F7010008F7010008AF
:10015000F7010008F7010008F7010008F70100089F
:10016000F7010008F7010008F7010008F70100088F
:10017000F7010008F7010008F7010008000000007F
:10018000F7010008F7010008F7010008F70100086F
:10019000F7010008F7010008F7010008F70100085F
:1001A000F7010008F7010008F7010008F70100084F
:1001B000F7010008F7010008F7010008F70100083F
:1001C000F7010008F7010008DFF80CD000F07AF81A
:1001D00000480047B51B0008D09804200648804717
:1001E00006480047FEE7FEE7FEE7FEE7FEE7FEE71C
:1001F000FEE7FEE7FEE7FEE719160008C901000862
:100200002DE9F05F0546002092469B46884606464B
:10021000814640241BE0284641464746224600F0DE
:1002200041F853465A46C01A914110D31146184618
:10023000224600F028F82D1A67EB01084F462246A7
:100240000120002100F01FF817EB00094E41201E8D
:10025000A4F10104DFDC484631462A464346BDE8A6
:10026000F09FD2B201E000F8012B491EFBD270478B
:100270000022F6E710B513460A4604461946FFF772
:10028000F0FF204610BD202A04DB203A00FA02F1DC
:10029000002070479140C2F1200320FA03F3194374
:1002A00090407047202A04DB203A21FA02F0002116
:1002B000704721FA02F3D040C2F120029140084376
:1002C00019467047064C074D06E0E06840F0010310
:1002D00094E8070098471034AC42F6D3FFF778FF54
:1002E000381F0008581F0008FEE770472DE9F84F37
:1002F000DFF89CE100224FF001084FF0030B4FF0B4
:100300000F0A00BF0B6808FA02F42340A34271D120
:100310004D68022D01D0122D0FD1D5080E69570757
:1003200000EB8505A9462D6AFF0E0AFA07FCBE40C0
:1003300025EA0C052E43C9F820600F7955000668A0
:100340000BFA05FC07F0030726EA0C06AF4037431B
:1003500007604E68012E05D0022E03D0112E01D069
:10036000122E0ED18668CF6826EA0C06AF403743BE
:10037000876046680F79A643C7F300179740374355
:100380004760C4688E6824EA0C04AE402643C66009
:100390004C68E40075D53F4C256845F480452560E0
:1003A000246822F00306950704F4804400943A4C34
:1003B0002D0F2644D6F80848DFF8E0C00AFA05F702
:1003C000604524EA070401D100272EE0344FB842EB
:1003D00001D1012729E0334FB84201D1022724E09F
:1003E000314FB84201D103271FE0304FB84202D14C
:1003F00004271AE045E02E4FB84201D1052714E04A
:100400002C4FB84201D106270FE02B4FB84201D143
:1004100007270AE0294FB84201D1082705E0284FF5
:10042000B84201D1092700E00A27AF4027437546AB
:10043000C6F808784E68DEF80040F60324EA0304A4
:1004400000D51C43124E2C60361D4D683468AD0338
:1004500024EA030400D51C430D4F346008374D686F
:100460003C68ED0224EA030400D51C43084D3C60BF
:100470000C354E682C68B60224EA030400D51C43F0
:100480002C60521C102AFFF43DAFBDE8F88F00002D
:10049000003C01404438024000300140000002406E
:1004A0000004024000080240000C0240001002401C
:1004B0000014024000180240001C024000200240CC
:1004C000002402400AB1816170470904FBE7000083
:1004D00001488068704700002000002002488168C1
:1004E000027811448160704720000020032010B57D
:1004F00000F060F8002000F005F800F023F800207C
:1005000010BD000070B50D4D04464FF47A700C4AD2
:1005100029781268B0FBF1F0B2FBF0F000F092FD28
:1005200048B9102C07D200222146501E00F022F8B4
:1005300000206C6070BD012070BD00002000002014
:100540002C0000200A4808B5016841F08051016084
:10055000006800F0805000900548001D016841F4DB
:1005600080410160006800F48040009008BD0000F8
:10057000403802400E4BF0B41B680D46C3F3022313
:10058000C3F10706042E00D90426191D072901D23C
:10059000002300E0DB1E012404FA06F19C40491E02
:1005A0002940641E994014402143F0BC01F0D5BAA3
:1005B0000CED00E0064900F0070210B54FF6FF040D
:1005C0000868044B204040EA02201843086010BD30
:1005D0000CED00E00000FA051848F8B5016841F09C
:1005E000805101600068164C00F080500090206837
:1005F00040F480302060FFF76BFF4FF47A760546B9
:1006000005E000BFFFF764FF401BB0420FD86068F1
:10061000C003F7D5206840F400302060FFF758FF92
:10062000054606E0FFF754FF401BB04201D9032006
:10063000F8BD60688003F5D50020F8BD4038024061
:10064000007000402DE9F84F04460078DFF824944C
:100650004FF000063746C0070ED0D9F8001021F43D
:100660000001C9F80010D9F80010626B1143C9F8F5
:100670000010606B00B90126FE4D20688435000330
:100680000ED5E16B286820F4401008432860E06B29
:10069000B0F5801F01D010B102E0012600E0012773
:1006A00020684FF4800BC0020CD5216C286820F420
:1006B000400008432860206C584501D1012601E024
:1006C00000B901272068C10100D50126800666D542
:1006D000E8483830016841F0805101600068DFF877
:1006E00098A300F080500090DAF8001041F4807177
:1006F000CAF80010FFF7ECFE804605E0FFF7E8FEC1
:10070000A0EB080064287DD8DAF80000C005F5D514
:10071000DFF8608308F16808D8F8000010F4407032
:100720002AD0218E01F44071814225D0D8F80010E2
:10073000D8F8002021F4407142F48032C8F800203B
:10074000D8F8002022F48032C8F80020C8F8001041
:10075000D8F80000C0070FD0FFF7BAFE824607E0C6
:10076000FFF7B6FEA0EB0A0141F288308142CAD8F9
:10077000D8F800008007F3D5206BC0F301210329CE
:100780007ED0D9F8001021F4F811C9F80010228E9B
:10079000D8F80010C2F30B021143C8F800102078FB
:1007A000C00607D5286820F0807028602868A16BF3
:1007B000084328602188AF488830490405D5626E17
:1007C000016821F44031114301602188090405D5F5
:1007D000A26E016821F44021114301602168C90320
:1007E00005D5E26E016821F44011114301602168D2
:1007F000890305D5226F016821F44001114301608E
:10080000217800E018E1490605D5626C016821F005
:100810000301114301602178090605D5A26C016826
:1008200021F00C01114301602188C90505D5E26C56
:10083000016821F03001114301602188890505D547
:10084000226D016821F0C001114301602188490532
:1008500005D5626D016821F4407111430160218862
:10086000090505D5A26D016821F4406111430160BD
:100870002188C90407D5E26D016821F4405100E0E8
:1008800041E0114301602188890405D5226E016889
:1008900021F44041114301602168490205D5A26F4E
:1008A000016821F080611143016021684FF0006A06
:1008B000890209D5E26F016821F0006111430160EE
:1008C000E16F514500D1012721680A0700D50127B2
:1008D000490305D5626F016821F040711143016041
:1008E0002168090206D5D4F88020016821F08051E2
:1008F00011430160DFF88491012E0ED02068B0F121
:10090000007F0AD08FE05E4AD9F80030104023F40F
:10091000F8120243C9F8002039E7D9F800004E4622
:1009200020F08060C9F80000FFF7D2FD804605E0A6
:10093000FFF7CEFDA0EB080064287DD830680001E9
:10094000F6D421784B487C30C90712D0616B81B94D
:10095000237A62680168D0F800C09201C1F30141B6
:1009600042EA0142CCF3036142EA016141EA0371C8
:10097000016021680A0303D5E26BB2F5801F04D041
:10098000C9021AD5216C594517D16368016894F8DA
:100990000CC002689B01C1F3014143EA0141C2F36B
:1009A000027241EA0C6141EA027101602968626ADF
:1009B00021F01F01521E114329602168C90110D581
:1009C000238A62680168D0F800C09201C1F3036114
:1009D00042EA034242EA0162CCF3027142EA017147
:1009E0000160216889010CD56168228A237B94F813
:1009F00008C0890141EA024141EA036141EA0C7100
:100A000001603168B04641F080613160FFF760FD00
:100A1000064604E0FFF75CFD801B64280CD8D8F87C
:100A200000000001F6D56FB3D9F800004E4620F063
:100A30008050C9F8000000E079E0FFF749FD074663
:100A400005E000BFFFF744FDC01B64286FD8306885
:100A5000C0438000F6D50748216880300A0301D5DD
:100A6000E26B1AB1C90225D5216C19BB6369016813
:100A7000277E08E00838024000700040003802403D
:100A8000FFFCFF0F5AE00268C1F301419B0143EAFA
:100A90000143C2F3027143EA076242EA0171016055
:100AA00029686FF0FF03A26A21F4F85103EB0222D8
:100AB000114329602168890212D5E16F51450FD198
:100AC000238C6269016807689201C1F3036142EAFD
:100AD000034242EA0162C7F3027142EA0171016016
:100AE0002178090716D561690268D0F800C08B012A
:100AF000277FC2F30362CCF3014143EA014141EA9B
:100B0000026141EA077101602868E16A20F440301F
:100B100008432860306840F080503060FFF7D8FC10
:100B2000044607E0FFF7D4FC001B642802D9032029
:100B3000BDE8F88F3068C0438000F3D40020F7E7A9
:100B40002DE9F04705000F4663D0444E306800F0B1
:100B50000F00B84209D2306820F00F0038433060EF
:100B6000306800F00F00B84253D128683C4C810730
:100B700012D5400703D5206840F4E0502060287863
:100B8000000703D5206840F460402060A968206811
:100B900020F0F000084320602878C0072AD03049B0
:100BA00068680839012810D00968022810D0890720
:100BB00000292EDA216821F0030101432160FFF7AB
:100BC00087FC804641F288390DE009688903EFE728
:100BD0008901EDE7FFF77CFCA0EB0801494502D94C
:100BE0000320BDE8F0876868216801F00C01B1EBD3
:100BF000800FEFD1306800F00F00B8420BD9306899
:100C000020F00F0038433060306800F00F00B84229
:100C100001D00120E5E72878400705D5E96820687C
:100C200020F4E050084320602878000706D52869A2
:100C3000216821F4604141EAC000206000F036F8EC
:100C40002168084AC1F30311515CC8400649086095
:100C50000020FFF757FC0020C3E70000003C0240E3
:100C600008380240201F00082C00002004490548D5
:100C700009680068044AC1F38221515CC84070478A
:100C8000083802402C000020301F000804490548A5
:100C900009680068044AC1F34231515CC84070479A
:100CA000083802402C000020301F0008154910B5FC
:100CB0001548096811F00C0213D04110042A0FD016
:100CC000082A0ED10F4C241F2268236802F03F022D
:100CD0005B0207D52068C0F38810A0FB010106E085
:100CE000084610BD2168C1F38811A1FB0001002353
:100CF000FFF786FA2168C1F30141491C4900B0FBA6
:100D0000F1F010BD083802400024F4002DE9F84F3E
:100D100005004FF000076ED02878DFF81C93A9F18A
:100D2000040AC007AAF104044CD0D9F800104846C0
:100D3000C1F38101012908D00068C0F381000228B5
:100D40000AD1DAF80000400206D52068800339D5C0
:100D500068680028DFD035E06868B0F5803F0BD0C8
:100D600010B1B0F5A02F11D0206820F480302060A1
:100D7000206820F4802002E0206840F48030206069
:100D8000686890B1FFF7A4FB06460AE0206840F4CB
:100D900080202060F0E700BFFFF79AFB801B6428EB
:100DA00072D820688003F7D50CE0FFF791FB064668
:100DB00005E000BFFFF78CFB801B6428F0D820689B
:100DC0008003F7D42878800742D5D9F80010484628
:100DD00011F00C0F08D00068C0F3810002280BD17D
:100DE000DAF80000400207D42068800718D5E868C8
:100DF000012800D114E01CE1E8680028206817D021
:100E000040F001002060FFF763FB064605E000BFED
:100E1000FFF75EFB801B0228C2D820688007F7D549
:100E20002869216821F0F80141EAC00020600FE044
:100E300020F001002060FFF74BFB064605E000BFF5
:100E4000FFF746FB801B02281ED820688007F7D4D6
:100E50002878000729D5784869696C3000298046D0
:100E6000016812D041F001010160FFF731FB064635
:100E700005E000BFFFF72CFB801B022804D8D8F840
:100E800000008007F6D510E089E021F00101016043
:100E9000FFF71EFB064604E0FFF71AFB801B022843
:100EA0007DD8D8F800008007F6D4287840076BD5A5
:100EB000DFF8848108F13808D8F80000C0000BD4AE
:100EC000D8F8001041F08051C8F80010D8F80000A0
:100ED000012700F08050009058480168C90512D4DD
:100EE0000168834641F480710160FFF7F1FA06461C
:100EF00005E000BFFFF7ECFA801B64284FD8DBF851
:100F00000000C005F6D54C4EA868683601280AD006
:100F100008B1052811D0306820F001003060306839
:100F200020F0040002E0306840F001003060A86862
:100F3000A0B1FFF7CDFA83460CE0306840F0040022
:100F40003060F0E7FFF7C4FAA0EB0B0141F2883004
:100F5000814266D830688007F4D50EE0FFF7B8FA12
:100F6000834607E0FFF7B4FAA0EB0B0141F28830AB
:100F7000814256D830688007F4D42FB1D8F80010D9
:100F800021F08051C8F80010A869C8B3D9F8001042
:100F9000C1F3810102294CD00228206800E040E022
:100FA00020F08070206003D0FFF792FA05463BE006
:100FB000FFF78EFA064604E0FFF78AFA801B022844
:100FC0002FD820688001F7D4D5E90962D5E9070157
:100FD0001B4B570895F82C20084303EB074343EAC3
:100FE0008611084340EA026040F00050CAF8000051
:100FF000206840F080702060FFF76AFA054606E03E
:1010000015E000BFFFF764FA401B022809D82068EA
:101010008001F7D50BE000BFFFF75AFA401B02280A
:1010200002D90320BDE8F88F20688001F4D40020A5
:10103000F8E70120F6E700000838024000700040A1
:101040000000FFFF401EB0F1807F10B501D30120EA
:1010500010BD4FF0E02460610F21601700F07DFDAE
:101060000020A0610721216110BD4FF0E02001693F
:1010700021F002010161704770B590F83C20012A0F
:1010800024D0134C012580F83C50022280F83D20EA
:1010900002685368A242966802D00E4CA24203D165
:1010A0004C6823F4700323430C6823F070038968B1
:1010B0001C435460002326F080060268314391608F
:1010C00080F83D5080F83C30184670BD022070BD5D
:1010D000000001400004014010B5040003D094F862
:1010E0003D0010B107E0012010BD002084F83C0055
:1010F000204600F00DF8022084F83D002068211DF4
:1011000000F0B4FA012084F83D00002010BD00007A
:1011100008B500680649884208D10648016841F0D0
:1011200001010160006800F00100009008BD0000AE
:1011300000000140443802400A4B022180F83D1073
:1011400001688A681A40062A06D0B2F5803F03D0AB
:101150000A6842F001020A60012180F83D10002077
:10116000704700000700010070B5044690F83C008D
:10117000012817D0324B012584F83C50022084F816
:101180003D0022689068184020F47F409060086815
:10119000502830D00DDC20284DD005DC98B3102825
:1011A0003BD148E0022070BD302844D0402834D1E3
:1011B00039E0602828D0702806D0B0F5805F2CD0A8
:1011C000B0F5005F29D10AE04A682068D1E902132E
:1011D00000F0B2FA2068816841F0770109E04A68BE
:1011E0002068D1E9021300F0A7FA2068816841F471
:1011F0008041816011E0CA684968206800F0ADFA5A
:101200002068502107E016E0CA684968206800F0AD
:10121000B5FA2068602100F098FA002084F83D506B
:1012200084F83C0070BDCA684968206800F095FAEF
:1012300020684021EFE7226801461046EBE70000F6
:1012400088FFFEFF10B5040002D0606F10B107E008
:10125000012010BD002084F87000204600F026F820
:10126000242060672068016821F0010101602046A8
:1012700000F018FB0128ECD0606A10B1204600F0A5
:101280008FFA2068416821F49041416020688168AC
:1012900021F02A0181602068016841F001010160AC
:1012A0002046BDE8104000F0DFBA000010B586B05F
:1012B000044614216846FEF7DBFF12492068884285
:1012C0001ED11148016841F400210160006800F45A
:1012D000002005900C481038016841F004010160BD
:1012E00000680221002200F0040005900323082476
:1012F0004FF440608DE81F0004486946FEF7F6FF92
:1013000006B010BD004C00404038024000080240CA
:101310002DE9F84F0446806F9B4616460D4620285F
:101320006AD1EDB1E6B194F87000012864D00122D1
:1013300084F8702022214FF00008C4F87C80A16757
:10134000FFF7C6F88246A068A4F858604FF48053AF
:10135000A4F85A60FF21984208D122691AB118E016
:101360000120BDE8F88F40F2FF1112E04FF07F023C
:1013700068B1B0F1805F0FD0A4F85C809842B4F8F7
:101380005C7001D1206970B12E4600250CE0266901
:1013900036B9A4F85C10F1E7216909B13F21F8E7FB
:1013A000A4F85C20EAE7002607F0FF09B4F85A0029
:1013B000E0B10022534620212046CDF800B000F0D5
:1013C0009BFB08B10320CCE72068406A56B100EAD5
:1013D000090006F8010B00BFB4F85A00401EA4F83B
:1013E0005A00E3E7384025F8020BF5E72021A16712
:1013F000002084F87080B4E70220B2E7FEE7000026
:101400002DE9F04786B014216846FEF731FF3248D7
:10141000016841F010010160016801F010010591BF
:10142000016841F080010160016801F080010591CF
:10143000016841F001010160016801F001010591BD
:10144000016841F002010160016801F002010591AB
:10145000016841F004010160006841F6FC76DFF8A4
:101460007C80002200F00400314605904046FFF7E2
:1014700029F8DFF86C90012250214846FFF722F846
:1014800000224846A021FFF71DF8DFF858A044F2DB
:101490008107002239465046FFF714F800240096D1
:1014A000012569464046CDE901540394FEF71EFF2D
:1014B000F0206946CDE90005CDE902454846FEF732
:1014C00015FF00976946CDE9015450460394FEF795
:1014D0000DFF06B0BDE8F087303802400010024032
:1014E000000002400004024010B588B013480024F8
:1014F0001149D7224FF6FE73059406940394049481
:1015000000940194029480E81600C0E90334446119
:101510008461FFF7E1FD4FF480500390074803A971
:10152000FFF722FE05486946009401940294FFF7F4
:10153000A3FD08B010BD00000000014030000020F5
:101540000A48002130B4084C0C224FF4E133046007
:10155000C0E90131C160C0E904128161C161016269
:10156000416230BCFFF76EBE004C004070000020AE
:10157000FEE7704770477047FEF7B0BF30B5B3B0B5
:10158000302121A8FEF774FE14212DA8FEF770FE6D
:1015900084216846FEF76CFE1D48016841F08051C9
:1015A0000160006800F0805032901A48016841F4F0
:1015B0004041016000680123022400F44040329061
:1015C00098050421D822CDE9274029A81D0480E8E8
:1015D00016002C9421A8CDE92135FFF797FBFEF7E3
:1015E000FBFFE1024FF4A0502DABCDE930010F22FB
:1015F000002583E8340007212DA8FFF7A1FA200277
:10160000149500906846FFF71DF833B030BD000018
:101610004038024000700040104A30B5104814684D
:1016200000210F4B44F470041460083305680D4A20
:101630000D4C45F00105056019600368051D134058
:10164000074A03600C322C600568E305034C25F45F
:1016500080250560803C1160236030BD88ED00E08E
:1016600000380240FFFFF6FE10300024F0B5274B93
:101670004FF0804E264D02689842264E264F274C4A
:1016800009D0704507D0A84205D0B04203D0B84277
:1016900001D0A04205D1D1F804C022F070024CEA7A
:1016A000020298421BD0704519D0A84217D0B04210
:1016B00015D0B84213D0A04211D0194DA8420ED077
:1016C000184DA8420BD0184DA84208D0174DA8427B
:1016D00005D0174DA84202D0164DA84203D1CD68BF
:1016E00022F440722A434D6922F080022A430260AC
:1016F00098428A68C2620A68826201D0A04201D11F
:101700000969016301214161F0BD00000000014051
:101710000004004000080040000C004000040140AC
:1017200000400140004401400048014000180040D2
:10173000001C00400020004042EA032283680A4364
:1017400023F47F410A4382607047826822F070026E
:101750000A4342F007018160704710B5036A046ACA
:1017600023F00A0324F00104046284690B4324F08B
:10177000F00141EA02118161036210BD10B5036AF4
:1017800023F0100303628369046A23F4704324F096
:10179000A00443EA0232826144EA0111016210BDF1
:1017A00090F82410C90706D00168836A4A6822F4B9
:1017B00000321A434A6090F82410890706D5016860
:1017C000C36A4A6822F480321A434A6090F82410AF
:1017D000490706D50168036B4A6822F480221A4340
:1017E0004A6090F82410090706D50168436B4A68DF
:1017F00022F400421A434A6090F82410C90606D524
:101800000168836B8A6822F480521A438A6090F8D8
:101810002410890606D50168C36B8A6822F4005239
:101820001A438A6090F82410490611D50168036CA8
:101830004A6822F480121A434A60016CB1F5801F95
:1018400006D10168436C4A6822F4C0021A434A6018
:1018500090F82410090606D50168826C486820F4C7
:10186000002010434860704738B500250446C5671E
:10187000FEF72EFE03462068006800070BD56FF0C8
:101880007E400090002220464FF4001100F034F911
:1018900008B1032038BD2020606784F87050A0672D
:1018A000002038BD2DE9F04104468068DFF818C2F9
:1018B000864F2368D4E90452E16928431E68002555
:1018C0000A438349104306EA0C0606431E604FF4A0
:1018D00000422068E668436823F440533343436082
:1018E0002368A669206AD3F808C030432CF4306618
:1018F00006439E602068B8420AD1086810F00300D1
:1019000052D001287BD002287AD003286ED186E0FD
:10191000704B98420AD1086810F00C0079D0042866
:101920007BD0082877D00C2860D178E06A4B9842A9
:101930000AD1086810F030006BD010286DD0202834
:1019400069D0302852D16AE0644B98420AD10868C5
:1019500010F0C0005DD040285FD080285BD0C02848
:1019600044D15CE05E4B98420DD1086810F44070A1
:101970004FD0B0F5807F50D0B0F5007F4BD0B0F5A0
:10198000407F33D14BE0574B98420FD1086810F499
:10199000406009D0B0F5806F3FD0B0F5006F3AD00D
:1019A000B0F5406F22D13AE0012120E04E4B984241
:1019B0000DD1086810F440502BD0B0F5805F2CD0CA
:1019C000B0F5005F27D0B0F5405F0FD127E0474B5F
:1019D00098420BD1086810F440401AD0B0F5804FFF
:1019E0001BD0904217D0B0F5404F18D01021E069BD
:1019F0004FF6EF76904238D109295DD202E00CE033
:101A000009E006E0DFE801F00D1027582A58585881
:101A10002D000021EBE70221E9E70421E7E7082197
:101A2000E5E7FFF723F901E0FFF730F90146D4F8C5
:101A30000400490001EB5001B1FBF0F080B2A0F1CD
:101A40001001B14238D84FF6F0732168C0F342025A
:101A50001840104324E026496068EBE7FFF726F9B9
:101A6000E4E760684FF48031E4E7092924D2DFE835
:101A700001F0050819231C2323231F00FFF7F6F8A4
:101A800001E0FFF703F90146D4F8040001EB50012F
:101A9000B1FBF0F080B2A0F11001B1420CD8216886
:101AA000C8600AE013496068F0E7FFF7FFF8EAE76B
:101AB000606802EB5001EBE70125002020666066BC
:101AC0002846BDE8F0810000F369FFEF00100140F7
:101AD000903802400044004000480040004C004064
:101AE000005000400014014000780040007C00409D
:101AF0000048E8010024F4002DE9F041984617461B
:101B00000E460446069D08E0681C06D0FEF7E0FC81
:101B1000A0EB0800A8420BD855B12068C06936EA8E
:101B2000000017D00020B842EED00020BDE8F081C0
:101B30002168202000220B6823F4D0730B602168F9
:101B40008B6823F001038B606067A067032084F833
:101B50007020EBE70120E6E7FEE7090700284FEADF
:101B6000116104DB00F1E02080F80014704700F000
:101B70000F0000F1E02080F8141D704702E008C853
:101B8000121F08C1002AFAD170477047002001E0F7
:101B900001C1121F002AFBD1704700000449002236
:101BA0000B685A6209684A6A8242FCD37047000097
:101BB00030000020FEF79AFCFFF7E0FCFFF720FC66
:101BC000FFF792FCFFF7BCFCFFF74FFACE48FFF798
:101BD000B3FACD483522CD49C030FEF742FBCA4E9C
:101BE0004FF0800BDFF828A34FF00009DFF82483C3
:101BF000C0365446DAF81400012818D1C34DC44F3A
:101C00006D1EC4F81890C0480122C34BC049403033
:101C1000FFF77EFBA1693A78481CA8427254A06184
:101C2000F1DDC4F81490C4F80490C8F800B08AE05C
:101C30004FF48041C8F800106068305C0A2812D266
:101C4000DFE800F01105081A253146576375B34DDA
:101C500020201EE0B14D202327E03846FFF79EFFED
:101C60006068001D6060D4E9010188426BDBC4F844
:101C70000C90C4F804906AE0A84D20231020402165
:101C80004FF4FA77AB61C5F818B0A8612AE0A34D0C
:101C900028011022A86140234FF4FA77C5F818B044
:101CA000AA61AB610BE09D4D2B011021AB6140207F
:101CB0004FF400024FF4FA77AA61A961A86138468F
:101CC000FFF76CFF4FF48010A8618100A961C4E7A1
:101CD000924D10224FF4FA772B014021AB61C5F8E9
:101CE00018B0AA61A9613846FFF758FF4FF4801079
:101CF0001BE08A4D2021102340204FF4FA77A96180
:101D0000C5F818B0AB61A8610AE0844D202010220C
:101D1000810440234FF4FA77A861A961AA61AB61FD
:101D20003846FFF73BFF4FF48000A86195E77B48FA
:101D30002021102340258161C0F818B0836185619E
:101D40004FF47A708AE7E06801283FF471AF2069A8
:101D500001287FF44EAF6D4928206060491E325C37
:101D6000322A0ED0401C8842F9DDA068CC46C4F867
:101D700004902746C11700EB91708210C4E90692C7
:101D8000B5E0A060F2E74168745C312C0DD17418A5
:101D90006578302D7ED1A578312D32D1E478302C84
:101DA00078D1012575540C1D44604168745C302C59
:101DB0001FD174186578312D0CD1A578302D48D1FC
:101DC000E478312C5DD105250C1D75544460315DDE
:101DD00030290ED1416875186C78302C34D1AC782C
:101DE000302C61D1EC78302C76D1092575540C1D3E
:101DF00044604168745C312C22D1314449783029E7
:101E000073D1456871198C78302C6ED1C97831291D
:101E10000DD10224291D74554160745C312C0FD101
:101E200031444C78302C60D1897830295DD14168BB
:101E30007418E478302C58D1032575540C1D446077
:101E40004168715C302950D1416831444978312969
:101E500025D1446831198D78312D0DD1C9783029BB
:101E600043D10425211D35554160745C302C3CD193
:101E700031444978312912D1416831448978302977
:101E800033D141687418E478302C2ED106250C1D0E
:101E9000755400E029E04460315D302925D1416866
:101EA00031444978302920D1446831198D78312D59
:101EB0000DD1C978302918D10725211D355541602C
:101EC000745C302C11D13144497830290DD14168EE
:101ED00031448978302908D141687418E478312C6C
:101EE00003D1082575540C1D44605B1CBB61BB69A4
:101EF000384693427FF747AF0120C8F80000C7F883
:101F000004C0C7E9030C74E630000020E09304002D
:101F10000000002018040240A086010000000240DA
:101F20000000000000000000010203040607080989
:101F30000000000001020304581F000800000020F8
:101F4000300000007C1B0008881F000830000020C3
:101F5000A09804008C1B0008050000000000000091
:101F600090010000000000000100000001000000DE
:101F70000000000000000000010000001000000050
:081F8000000000000024F40041
:04000005080001C925
:00000001FF
